{
	"data": {
		"bytecode": {
			"linkReferences": {},
			"object": "608060405234801561001057600080fd5b5060016000819055506102f2806100286000396000f3fe608060405234801561001057600080fd5b50600436106100415760003560e01c80636482e626146100465780639bf390a814610062578063d47b8ff71461007e575b600080fd5b610060600480360381019061005b91906100e8565b61009c565b005b61007c600480360381019061007791906100e8565b6100b3565b005b6100866100ca565b6040516100939190610124565b60405180910390f35b806000546100aa919061013f565b60008190555050565b806000546100c191906101d3565b60008190555050565b60008054905090565b6000813590506100e2816102a5565b92915050565b6000602082840312156100fe576100fd6102a0565b5b600061010c848285016100d3565b91505092915050565b61011e81610267565b82525050565b60006020820190506101396000830184610115565b92915050565b600061014a82610267565b915061015583610267565b9250817f7fffffffffffffffffffffffffffffffffffffffffffffffffffffffffffffff038313600083121516156101905761018f610271565b5b817f80000000000000000000000000000000000000000000000000000000000000000383126000831216156101c8576101c7610271565b5b828201905092915050565b60006101de82610267565b91506101e983610267565b9250827f80000000000000000000000000000000000000000000000000000000000000000182126000841215161561022457610223610271565b5b827f7fffffffffffffffffffffffffffffffffffffffffffffffffffffffffffffff01821360008412161561025c5761025b610271565b5b828203905092915050565b6000819050919050565b7f4e487b7100000000000000000000000000000000000000000000000000000000600052601160045260246000fd5b600080fd5b6102ae81610267565b81146102b957600080fd5b5056fea2646970667358221220f04f6e95ccd1e791ba9bc0c6f72372ac7429ec987633162373f80a6594177a7764736f6c63430008060033",
			"opcodes": "PUSH1 0x80 PUSH1 0x40 MSTORE CALLVALUE DUP1 ISZERO PUSH2 0x10 JUMPI PUSH1 0x0 DUP1 REVERT JUMPDEST POP PUSH1 0x1 PUSH1 0x0 DUP2 SWAP1 SSTORE POP PUSH2 0x2F2 DUP1 PUSH2 0x28 PUSH1 0x0 CODECOPY PUSH1 0x0 RETURN INVALID PUSH1 0x80 PUSH1 0x40 MSTORE CALLVALUE DUP1 ISZERO PUSH2 0x10 JUMPI PUSH1 0x0 DUP1 REVERT JUMPDEST POP PUSH1 0x4 CALLDATASIZE LT PUSH2 0x41 JUMPI PUSH1 0x0 CALLDATALOAD PUSH1 0xE0 SHR DUP1 PUSH4 0x6482E626 EQ PUSH2 0x46 JUMPI DUP1 PUSH4 0x9BF390A8 EQ PUSH2 0x62 JUMPI DUP1 PUSH4 0xD47B8FF7 EQ PUSH2 0x7E JUMPI JUMPDEST PUSH1 0x0 DUP1 REVERT JUMPDEST PUSH2 0x60 PUSH1 0x4 DUP1 CALLDATASIZE SUB DUP2 ADD SWAP1 PUSH2 0x5B SWAP2 SWAP1 PUSH2 0xE8 JUMP JUMPDEST PUSH2 0x9C JUMP JUMPDEST STOP JUMPDEST PUSH2 0x7C PUSH1 0x4 DUP1 CALLDATASIZE SUB DUP2 ADD SWAP1 PUSH2 0x77 SWAP2 SWAP1 PUSH2 0xE8 JUMP JUMPDEST PUSH2 0xB3 JUMP JUMPDEST STOP JUMPDEST PUSH2 0x86 PUSH2 0xCA JUMP JUMPDEST PUSH1 0x40 MLOAD PUSH2 0x93 SWAP2 SWAP1 PUSH2 0x124 JUMP JUMPDEST PUSH1 0x40 MLOAD DUP1 SWAP2 SUB SWAP1 RETURN JUMPDEST DUP1 PUSH1 0x0 SLOAD PUSH2 0xAA SWAP2 SWAP1 PUSH2 0x13F JUMP JUMPDEST PUSH1 0x0 DUP2 SWAP1 SSTORE POP POP JUMP JUMPDEST DUP1 PUSH1 0x0 SLOAD PUSH2 0xC1 SWAP2 SWAP1 PUSH2 0x1D3 JUMP JUMPDEST PUSH1 0x0 DUP2 SWAP1 SSTORE POP POP JUMP JUMPDEST PUSH1 0x0 DUP1 SLOAD SWAP1 POP SWAP1 JUMP JUMPDEST PUSH1 0x0 DUP2 CALLDATALOAD SWAP1 POP PUSH2 0xE2 DUP2 PUSH2 0x2A5 JUMP JUMPDEST SWAP3 SWAP2 POP POP JUMP JUMPDEST PUSH1 0x0 PUSH1 0x20 DUP3 DUP5 SUB SLT ISZERO PUSH2 0xFE JUMPI PUSH2 0xFD PUSH2 0x2A0 JUMP JUMPDEST JUMPDEST PUSH1 0x0 PUSH2 0x10C DUP5 DUP3 DUP6 ADD PUSH2 0xD3 JUMP JUMPDEST SWAP2 POP POP SWAP3 SWAP2 POP POP JUMP JUMPDEST PUSH2 0x11E DUP2 PUSH2 0x267 JUMP JUMPDEST DUP3 MSTORE POP POP JUMP JUMPDEST PUSH1 0x0 PUSH1 0x20 DUP3 ADD SWAP1 POP PUSH2 0x139 PUSH1 0x0 DUP4 ADD DUP5 PUSH2 0x115 JUMP JUMPDEST SWAP3 SWAP2 POP POP JUMP JUMPDEST PUSH1 0x0 PUSH2 0x14A DUP3 PUSH2 0x267 JUMP JUMPDEST SWAP2 POP PUSH2 0x155 DUP4 PUSH2 0x267 JUMP JUMPDEST SWAP3 POP DUP2 PUSH32 0x7FFFFFFFFFFFFFFFFFFFFFFFFFFFFFFFFFFFFFFFFFFFFFFFFFFFFFFFFFFFFFFF SUB DUP4 SGT PUSH1 0x0 DUP4 SLT ISZERO AND ISZERO PUSH2 0x190 JUMPI PUSH2 0x18F PUSH2 0x271 JUMP JUMPDEST JUMPDEST DUP2 PUSH32 0x8000000000000000000000000000000000000000000000000000000000000000 SUB DUP4 SLT PUSH1 0x0 DUP4 SLT AND ISZERO PUSH2 0x1C8 JUMPI PUSH2 0x1C7 PUSH2 0x271 JUMP JUMPDEST JUMPDEST DUP3 DUP3 ADD SWAP1 POP SWAP3 SWAP2 POP POP JUMP JUMPDEST PUSH1 0x0 PUSH2 0x1DE DUP3 PUSH2 0x267 JUMP JUMPDEST SWAP2 POP PUSH2 0x1E9 DUP4 PUSH2 0x267 JUMP JUMPDEST SWAP3 POP DUP3 PUSH32 0x8000000000000000000000000000000000000000000000000000000000000000 ADD DUP3 SLT PUSH1 0x0 DUP5 SLT ISZERO AND ISZERO PUSH2 0x224 JUMPI PUSH2 0x223 PUSH2 0x271 JUMP JUMPDEST JUMPDEST DUP3 PUSH32 0x7FFFFFFFFFFFFFFFFFFFFFFFFFFFFFFFFFFFFFFFFFFFFFFFFFFFFFFFFFFFFFFF ADD DUP3 SGT PUSH1 0x0 DUP5 SLT AND ISZERO PUSH2 0x25C JUMPI PUSH2 0x25B PUSH2 0x271 JUMP JUMPDEST JUMPDEST DUP3 DUP3 SUB SWAP1 POP SWAP3 SWAP2 POP POP JUMP JUMPDEST PUSH1 0x0 DUP2 SWAP1 POP SWAP2 SWAP1 POP JUMP JUMPDEST PUSH32 0x4E487B7100000000000000000000000000000000000000000000000000000000 PUSH1 0x0 MSTORE PUSH1 0x11 PUSH1 0x4 MSTORE PUSH1 0x24 PUSH1 0x0 REVERT JUMPDEST PUSH1 0x0 DUP1 REVERT JUMPDEST PUSH2 0x2AE DUP2 PUSH2 0x267 JUMP JUMPDEST DUP2 EQ PUSH2 0x2B9 JUMPI PUSH1 0x0 DUP1 REVERT JUMPDEST POP JUMP INVALID LOG2 PUSH5 0x6970667358 0x22 SLT KECCAK256 CREATE 0x4F PUSH15 0x95CCD1E791BA9BC0C6F72372AC7429 0xEC SWAP9 PUSH23 0x33162373F80A6594177A7764736F6C6343000806003300 "
		},
		"gasEstimates": {
			"creation": {
				"codeDepositCost": "150800",
				"executionCost": "22310",
				"totalCost": "173110"
			},
			"external": {
				"d(int256)": "infinite",
				"gb()": "2459",
				"w(int256)": "infinite"
			}
		},
		"methodIdentifiers": {
			"d(int256)": "6482e626",
			"gb()": "d47b8ff7",
			"w(int256)": "9bf390a8"
		}
	},
	"abi": [
		{
			"inputs": [],
			"stateMutability": "nonpayable",
			"type": "constructor"
		},
		{
			"inputs": [
				{
					"internalType": "int256",
					"name": "amt",
					"type": "int256"
				}
			],
			"name": "d",
			"outputs": [],
			"stateMutability": "nonpayable",
			"type": "function"
		},
		{
			"inputs": [],
			"name": "gb",
			"outputs": [
				{
					"internalType": "int256",
					"name": "",
					"type": "int256"
				}
			],
			"stateMutability": "view",
			"type": "function"
		},
		{
			"inputs": [
				{
					"internalType": "int256",
					"name": "amt",
					"type": "int256"
				}
			],
			"name": "w",
			"outputs": [],
			"stateMutability": "nonpayable",
			"type": "function"
		}
	]
}